:100000000C9434000C943E000C943E000C943E0082
:100010000C943E000C943E000C943E000C943E0068
:100020000C943E000C943E000C943E000C943E0058
:100030000C943E000C943E000C943E000C943E0048
:100040000C943E000C943E000C943E000C943E0038
:100050000C943E000C943E000C943E000C943E0028
:100060000C943E000C943E0011241FBECFEFD8E04C
:10007000DEBFCDBF0E9440000C948D000C940000A8
:100080001CE214B911E51CBD20D0389A409813D059
:10009000409A38983099FECF309BFECF3099FECFF2
:1000A0002CD02BD02AD02A982EBD3DB537FFFDCFBE
:1000B0002A9A0BD0E9CF5FEF62ED72E07A95F1F703
:1000C0006A95D9F75A95C1F708955FEF6FEF74EA13
:1000D0007A95F1F76A95D9F75A95C1F708954427AB
:1000E00046BD44E647BD4AE045BD45B341FFFDCFAF
:1000F000442745BD42E045BB089518E02227309BC8
:10010000FECFEDDF309B03C00894221F01C0220FF9
:0E0110003099FECF1A9599F70895F894FFCF15
:00000001FF
