:100000000C9434000C943E000C943E000C943E0082
:100010000C943E000C943E000C943E000C943E0068
:100020000C943E000C943E000C943E000C943E0058
:100030000C943E000C943E000C943E000C943E0048
:100040000C943E000C943E000C943E000C943E0038
:100050000C943E000C943E000C943E000C943E0028
:100060000C943E000C943E0011241FBECFEFD8E04C
:10007000DEBFCDBF0E9440000C949F000C94000096
:100080001CE214B911E51CBD1FEF1AB92FD0389A24
:10009000409822D0409A38983099FECF309BFECFBE
:1000A0003099FECF3BD03AD039D02A982EBD3DB5FD
:1000B00037FFFDCF2A9A243150F02E3120F05A9A82
:1000C0005998589807C0599A5A98589803C0589AFE
:1000D00059985A980BD0DACF5FEF62ED72E07A95BB
:1000E000F1F76A95D9F75A95C1F708955FEF6FEF69
:1000F00074EA7A95F1F76A95D9F75A95C1F7089598
:10010000442746BD44E647BD4AE045BD45B341FFEF
:10011000FDCF442745BD42E045BB089518E02227A6
:10012000309BFECFEDDF309B03C00894221F02C03E
:100130008894221F3099FECF1A9591F70895F8946C
:02014000FFCFEF
:00000001FF
