:100000000C9434000C943E000C943E000C943E0082
:100010000C943E000C943E000C943E000C943E0068
:100020000C943E000C943E000C943E000C943E0058
:100030000C943E000C943E000C943E000C943E0048
:100040000C943E000C943E000C943E000C943E0038
:100050000C943E000C943E000C943E000C943E0028
:100060000C943E000C943E0011241FBECFEFD8E04C
:10007000DEBFCDBF0E9440000C94D3000C94000062
:100080001CE214B911E51CBD1FEF1AB94ED0389A05
:10009000409841D0409A38983099FECF309BFECF9F
:1000A0003099FECF6FD06ED06DD02A982EBD3DB561
:1000B00037FFFDCF2A9A243170F02E3130F001E065
:1000C000589859985A9A5B9A0BC002E05898599AD6
:1000D0005A985B9805C003E0589A59985A985B98CB
:1000E000013011F022D0D2CF5A9A37D05A9835D059
:1000F0005A9A33D05A9831D05A9A2FD05A982DD034
:100100005A9A2BD05A9829D05A9A27D05A9825D043
:100110005A9A015008955FEF62ED72E07A95F1F717
:100120006A95D9F75A95C1F708955FEF6FEF74EAB2
:100130007A95F1F76A95D9F75A95C1F7089544274A
:1001400046BD44E647BD4AE045BD45B341FFFDCF4E
:10015000442745BD42E045BB08954AEE40938500E3
:1001600043EA4093840040E04093800045E04093A0
:10017000810046B340FFFDCF41E046BB40E04093E5
:100180008100089518E02227309BFECFD8DF309BF6
:1001900003C00894221F02C08894221F3099FECF0A
:0A01A0001A9591F70895F894FFCF27
:00000001FF
