:100000000C9434000C943E000C943E000C943E0082
:100010000C943E000C943E000C943E000C943E0068
:100020000C943E000C943E000C943E000C943E0058
:100030000C943E000C943E000C943E000C943E0048
:100040000C943E000C943E000C943E000C943E0038
:100050000C943E000C943E000C943E000C943E0028
:100060000C943E000C943E0011241FBECFEFD8E04C
:10007000DEBFCDBF0E9440000C94CD000C94000068
:100080001FEF1AB914B9289879D010E41CBD2BD0F1
:100090005DD000EC39D072D070E32DB527FFFDCFD5
:1000A0002EB588279927243EE2F424361AF083954A
:1000B0002456FBCF2A301AF093952A50FBCF2F936A
:1000C000870F282F022F31D0292F270F022F2DD055
:1000D0002F91270F022F29D056D000EC15D04ED0EB
:1000E000DCCF2038E3CF03E30FD048D002E30CD0BD
:1000F00045D008E209D042D00CE006D001E004D09F
:100100003DD006E001D00895B02FB07FBBB929984B
:10011000289A2CD028982DD0B02FB295B07FBBB99B
:10012000289A24D0289825D00895B02FB07FBBB945
:10013000299A289A1BD028981CD0B02FB295B07F4E
:10014000BBB9289A13D0289814D00895F1E0ECE5B3
:100150000591003011F0E9DFFBCF0895437572720D
:10016000656E742074656D702028432900000000BE
:1001700008954AE5FBDF4A95E9F7089558E2F9DF6B
:100180005A95E9F708954FEF5FEF64E16A95F1F74B
:0E0190005A95D9F74A95C1F70895F894FFCF14
:00000001FF
