:100000000C9434000C943E000C943E000C943E0082
:100010000C943E000C943E000C943E000C943E0068
:100020000C943E000C943E000C943E000C943E0058
:100030000C943E000C943E000C943E000C943E0048
:100040000C943E000C943E000C943E000C943E0038
:100050000C943E000C943E000C943E000C943E0028
:100060000C943E000C943E0011241FBECFEFD8E04C
:10007000DEBFCDBF0E9440000C94BE000C94000077
:100080001FEF1AB91FEF14B9289869D010E41CBDEE
:100090002BD000EC3AD063D070E387E02DB527FF7A
:1000A000FDCF2EB52E3110F02F311CF430E03BB9CE
:1000B00003C03CE03BB900C0022F007F0295070F50
:1000C000C02FCA536AF432D0022F0F70070FC02F0F
:1000D000CA5342F42BD048D000EC17D040D0DECF2A
:1000E000080FF1CF080FF6CF03E30FD038D002E3AB
:1000F0000CD035D008E209D032D00CE006D001E0B7
:1001000004D02DD006E001D00895B02FB07FBBB948
:100110002998289A1CD028981DD0B02FB295B07F6E
:10012000BBB9289A14D0289815D00895B02FB07F65
:10013000BBB9299A289A0BD028980CD0B02FB29529
:10014000B07FBBB9289A03D0289804D00895000046
:10015000000008954AE5FBDF4A95E9F7089558E263
:10016000F9DF5A95E9F708954FEF5FEF64E16A957B
:10017000F1F75A95D9F74A95C1F70895F894FFCF4A
:00000001FF
